{
  "_format": "hh-sol-artifact-1",
  "contractName": "CaptureTheFlag",
  "sourceName": "contracts/CaputuretheFlag.sol",
  "abi": [
    {
      "anonymous": false,
      "inputs": [
        {
          "indexed": false,
          "internalType": "address",
          "name": "previousHolder",
          "type": "address"
        },
        {
          "indexed": false,
          "internalType": "address",
          "name": "currentHolder",
          "type": "address"
        }
      ],
      "name": "FlagCaptured",
      "type": "event"
    },
    {
      "inputs": [],
      "name": "captureTheFlag",
      "outputs": [],
      "stateMutability": "nonpayable",
      "type": "function"
    },
    {
      "inputs": [],
      "name": "currentHolder",
      "outputs": [
        {
          "internalType": "address",
          "name": "",
          "type": "address"
        }
      ],
      "stateMutability": "view",
      "type": "function"
    }
  ],
  "bytecode": "0x608060405260008060006101000a81548173ffffffffffffffffffffffffffffffffffffffff021916908373ffffffffffffffffffffffffffffffffffffffff16021790555034801561005157600080fd5b50610203806100616000396000f3fe608060405234801561001057600080fd5b50600436106100355760003560e01c80624225b81461003a578063239e26f214610058575b600080fd5b610042610062565b60405161004f9190610189565b60405180910390f35b610060610086565b005b60008054906101000a900473ffffffffffffffffffffffffffffffffffffffff1681565b60008060009054906101000a900473ffffffffffffffffffffffffffffffffffffffff169050336000806101000a81548173ffffffffffffffffffffffffffffffffffffffff021916908373ffffffffffffffffffffffffffffffffffffffff1602179055507facc718a11fbc93a22905740808767480f9efd07b1c0b0128095790cd1440048d8160008054906101000a900473ffffffffffffffffffffffffffffffffffffffff1660405161013d9291906101a4565b60405180910390a150565b600073ffffffffffffffffffffffffffffffffffffffff82169050919050565b600061017382610148565b9050919050565b61018381610168565b82525050565b600060208201905061019e600083018461017a565b92915050565b60006040820190506101b9600083018561017a565b6101c6602083018461017a565b939250505056fea2646970667358221220f42418992600258be8fb01530e5d3746384b37622b418b5e25ffa44b0de24e4764736f6c63430008110033",
  "linkReferences": {},
  "deployedLinkReferences": {}
}